:1000000045C0000060C000005EC000005CC0000091
:100010005AC0000058C0000056C0000054C0000084
:1000200052C0000050C000004EC000004CC0000094
:100030004AC00000B2C0000046C0000044C000003A
:1000400042C0000040C000003EC000003CC00000B4
:100050003AC0000038C0000036C0000034C00000C4
:1000600032C0000030C000002EC000002CC00000D4
:100070002AC0000028C0000026C0000024C00000E4
:1000800022C0000020C000001EC0000011241FBEBE
:10009000CFEFD0E4DEBFCDBF11E0A0E0B1E0EAE3F6
:1000A000F5E000E00BBF02C007900D92A430B1074D
:1000B000D9F721E0A4E0B1E001C01D92A631B2075A
:1000C000E1F703D238C29CCFCF92DF92EF92FF923A
:1000D0001F93CF93DF931092040180910D01882329
:1000E00009F453C080E01BE0C0911201D0911301CC
:1000F000189FC00DD11D11244D815E816F817885BF
:1001000089819A81AB81BC81481759076A077B07AF
:10011000B0F08881E985FA85082E000C990B0995C5
:10012000888380910401E0911201F0911301189FDE
:10013000E00DF11D11241582168217821086809120
:100140000401E0911201F0911301189FE00DF11DDF
:100150001124C580D680E780F08440910001509141
:10016000010160910201709103014C0D5D1D6E1D36
:100170007F1D45835683678370878F5F809304015B
:1001800090910D01891708F4AFCFDF91CF911F91A6
:10019000FF90EF90DF90CF9008951F920F920FB6CF
:1001A0000F9211240BB60F922F933F934F935F93AF
:1001B0006F937F938F939F93AF93BF93EF93FF932F
:1001C00080910E0190910F01A0911001B091110149
:1001D0000197A109B10980930E0190930F01A0939B
:1001E0001001B0931101892B8A2B8B2B89F46CDFC2
:1001F0008091000190910101A0910201B091030151
:1002000080930E0190930F01A0931001B093110100
:10021000FF91EF91BF91AF919F918F917F916F91DE
:100220005F914F913F912F910F900BBE0F900FBE9A
:100230000F901F90189560930001709301018093B7
:1002400002019093030160930E0170930F0180935C
:1002500010019093110108958BE08093810087E055
:1002600090E0909389008093880082E080936F00F3
:1002700010928500109284008091000190910101FC
:10028000A0910201B091030180930E0190930F01A0
:10029000A0931001B09311018FB780688FBF0895AC
:1002A000813081F01092C50083E18093C400E1ECBD
:1002B000F0E0808188618083E2ECF0E080818660FC
:1002C00080830895E9ECF0E0808188618083EAEC26
:1002D000F0E080818660808383E18093CC0010927F
:1002E000CD000895613041F0E0ECF0E0908195FFA1
:1002F000FDCF8093C6000895E8ECF0E0908195FF73
:10030000FDCF8093CE0008954091090150910A01DC
:1003100060910B0170910C0141155105610571054A
:1003200071F481E090E0A0E0B0E080930901909347
:100330000A01A0930B01B0930C0180E00895A0E0A6
:10034000B0E0481759076A077B0750F0109209017F
:1003500010920A0110920B0110920C0181E0089595
:100360004F5F5F4F6F4F7F4F4093090150930A01DA
:1003700060930B0170930C0180E00895CF93DF939D
:10038000EC018130910509F13CF4CF3F8FEFD807A4
:1003900051F0209771F095C08230910581F103975B
:1003A00009F468C08EC01BB815B818B8C0E0D0E01A
:1003B00088C01092080110920701009B82C081E062
:1003C00090E0A2DFC82FD0E07CC084E090E09CDF0A
:1003D000882309F476C0009B0BC01092060110928E
:1003E00005011092080110920701C2E0D0E069C037
:1003F0001092060110920501C0E0D0E062C084E0D6
:1004000090E082DF882309F45CC08091070190911D
:1004100008018A309105D4F4009B12C021E030E03D
:10042000082E02C0220F331F0A94E2F74091050103
:1004300050910601242B352B3093060120930501A2
:10044000019690930801809307013BC0009B07C071
:100450001092080110920701C3E0D0E032C0109260
:100460000601109205011092080110920701C0E0E8
:10047000D0E027C010920801109207018091050179
:10048000909106010097A9F09C0122273370232B3D
:1004900099F485B980910601846088B98091C00083
:1004A00085FF0DC060E0809105011CDFC0E0D0E059
:1004B00008C0C0E0D0E005C0C0E0D0E002C0C0E0AD
:1004C000D0E0CE01DF91CF910895CF93DF93CDB7E8
:1004D000DEB72B970FB6F894DEBF0FBECDBF1FEF70
:1004E00014B915B817B918B81AB91BB811B812B998
:1004F00080E0D6DE81E080930D01CE0101969093DD
:10050000130180931201198381E090E0A0E0B0E034
:100510008A839B83AC83BD838E839F83A887B9879F
:100520008EEB91E09B878A8761E070E080E090E04D
:0A05300082DE92DEFFCFF894FFCFC9
:04053A0001000000BC
:00000001FF
