:1000000045C0000060C000005EC000005CC0000091
:100010005AC0000058C0000056C0000054C0000084
:1000200052C0000050C000004EC000004CC0000094
:100030004AC00000B2C0000046C0000044C000003A
:1000400042C0000040C000003EC000003CC00000B4
:100050003AC0000038C0000036C0000034C00000C4
:1000600032C0000030C000002EC000002CC00000D4
:100070002AC0000028C0000026C0000024C00000E4
:1000800022C0000020C000001EC0000011241FBEBE
:10009000CFEFD0E4DEBFCDBF11E0A0E0B1E0EAEAEF
:1000A000F4E000E00BBF02C007900D92A430B1074E
:1000B000D9F721E0A4E0B1E001C01D92A431B2075C
:1000C000E1F7BDD1F0C19CCFCF92DF92EF92FF92CA
:1000D0001F93CF93DF931092040180910B0188232B
:1000E00009F453C080E01BE0C0911001D0911101D0
:1000F000189FC00DD11D11244D815E816F817885BF
:1001000089819A81AB81BC81481759076A077B07AF
:10011000B0F08881E985FA85082E000C990B0995C5
:10012000888380910401E0911001F0911101189FE2
:10013000E00DF11D11241582168217821086809120
:100140000401E0911001F0911101189FE00DF11DE3
:100150001124C580D680E780F08440910001509141
:10016000010160910201709103014C0D5D1D6E1D36
:100170007F1D45835683678370878F5F809304015B
:1001800090910B01891708F4AFCFDF91CF911F91A8
:10019000FF90EF90DF90CF9008951F920F920FB6CF
:1001A0000F9211240BB60F922F933F934F935F93AF
:1001B0006F937F938F939F93AF93BF93EF93FF932F
:1001C00080910C0190910D01A0910E01B0910F0151
:1001D0000197A109B10980930C0190930D01A0939F
:1001E0000E01B0930F01892B8A2B8B2B89F46CDFC6
:1001F0008091000190910101A0910201B091030151
:1002000080930C0190930D01A0930E01B0930F0108
:10021000FF91EF91BF91AF919F918F917F916F91DE
:100220005F914F913F912F910F900BBE0F900FBE9A
:100230000F901F90189560930001709301018093B7
:1002400002019093030160930C0170930D01809360
:100250000E0190930F0108958BE08093810087E059
:1002600090E0909389008093880082E080936F00F3
:1002700010928500109284008091000190910101FC
:10028000A0910201B091030180930C0190930D01A4
:10029000A0930E01B0930F018FB780688FBF0895B0
:1002A0002091090130910A012115310541F481E0C5
:1002B00090E090930A018093090180E00895281747
:1002C000390730F010920A011092090181E0089577
:1002D0002F5F3F4F30930A012093090180E008957A
:1002E000CF93DF93EC01019B07C01092060110929F
:1002F000050115B818B819C08130910511F144F401
:10030000CF3F8FEFD80769F0209709F094C00DC058
:100310008330910509F46AC074F1099709F478C033
:100320008AC01BB8C0E0D0E086C0109208011092CD
:100330000701009B7BC081E090E0B2DFC82FD0E0D6
:100340007AC084E090E0ACDF882309F474C0009B9D
:100350000BC0109206011092050110920801109234
:100360000701C2E0D0E067C01092060110920501BB
:10037000C0E0D0E060C084E090E092DF882309F420
:100380005AC080910701909108018A309105D4F4F8
:10039000009B12C021E030E0082E02C0220F331F64
:1003A0000A94E2F74091050150910601242B352B68
:1003B00030930601209305010196909308018093E4
:1003C000070139C0009B07C0109208011092070175
:1003D000C3E0D0E030C010920601109205011092E7
:1003E000080110920701C0E0D0E025C0109208017A
:1003F0001092070180910501909106010097C9F0C4
:1004000085B980910601846088B9C9E0D0E013C045
:1004100084EF91E045DF882371F015B818B8109289
:10042000080110920701C0E0D0E005C0C0E0D0E0B4
:1004300002C0C0E0D0E0CE01DF91CF910895CF930C
:10044000DF93CDB7DEB72B970FB6F894DEBF0FBEA4
:10045000CDBF8FEF84B915B887B918B88AB91BB862
:1004600011B882B981E080930B01CE01019690937F
:10047000110180931001198281E090E0A0E0B0E0CA
:100480008A839B83AC83BD838E839F83A887B98730
:1004900080E791E09B878A8761E070E080E090E0F0
:0A04A000CADEDADEFFCFF894FFCFCA
:0404AA00010000004D
:00000001FF
