:1000000045C0000060C000005EC000005CC0000091
:100010005AC0000058C0000056C0000054C0000084
:1000200052C0000050C000004EC000004CC0000094
:100030004AC00000ABC0000046C0000044C0000041
:1000400042C0000040C000003EC000003CC00000B4
:100050003AC0000038C0000036C0000034C00000C4
:1000600032C0000030C000002EC000002CC00000D4
:100070002AC0000028C0000026C0000024C00000E4
:1000800022C0000020C000001EC0000011241FBEBE
:10009000CFEFD0E4DEBFCDBF11E0A0E0B1E0ECECEB
:1000A000F3E000E00BBF02C007900D92A630B1074D
:1000B000D9F721E0A6E0B1E001C01D92AE30B20751
:1000C000E1F752D181C19CCF0F931F93CF93DF9360
:1000D000109206014FC0C0910C01D0910D019BE020
:1000E000899FC00DD11D11244D815E816F8178855E
:1000F00089819A81AB81BC81481759076A077B07C0
:10010000B8F0E985FA858881082E000C990B0995CD
:10011000888380910601E0910C01F0910D019BE034
:10012000899FE00DF11D1124158216821782108619
:1001300080910601E0910C01F0910D019BE0899FF7
:10014000E00DF11D11240581168127813085409134
:100150000101509102016091030170910401400F6F
:10016000511F621F731F45835683678370878F5F9C
:10017000809306018091060190910701891708F488
:10018000AACFDF91CF911F910F9108951F920F92E7
:100190000FB60F9211240BB60F922F933F934F93EC
:1001A0005F936F937F938F939F93AF93BF93EF93DF
:1001B000FF938091080190910901A0910A01B091EB
:1001C0000B010197A109B1098093080190930901DE
:1001D000A0930A01B0930B01892B8A2B8B2B89F4F6
:1001E00073DF8091010190910201A0910301B09110
:1001F00004018093080190930901A0930A01B09330
:100200000B01FF91EF91BF91AF919F918F917F91E2
:100210006F915F914F913F912F910F900BBE0F9077
:100220000FBE0F901F90189560930101709302010B
:100230008093030190930401609308017093090176
:1002400080930A0190930B0108958BE080938100C5
:100250008DE790E0909389008093880082E08093FE
:100260006F0010928500109284008091010190919E
:100270000201A0910301B0910401809308019093C1
:100280000901A0930A01B0930B018FB780688FBF5B
:100290000895813089F0E1ECF0E08081886180830D
:1002A000E2ECF0E080818660808387E88093C40080
:1002B00083E18093C5000895E9ECF0E080818861D6
:1002C0008083EAECF0E080818660808387E8809319
:1002D000CC0083E18093CD000895813021F080919E
:1002E000C000807208958091C800807208956130C6
:1002F00039F09091C00095FFFCCF8093C60008951F
:100300009091C80095FFFCCF8093CE000895CF93C5
:10031000DF93EC01CF3F8FEFD80729F0209729F02A
:10032000CFEFDFEF02C0C0E0D0E0CF3F8FEFD807C4
:1003300019F0209721F012C0C0E0D0E011C080E099
:10034000CCDF882369F09091000183E089278093B6
:10035000000182B960E085E5CADF02C0CFEFDFEFC0
:10036000CE01DF91CF910895CF93DF93CDB7DEB764
:100370002B970FB6F894DEBF0FBECDBF1FEF11B99C
:1003800012B880E086DF81E080930701CE010196FC
:1003900090930D0180930C01198388EE93E0A0E007
:1003A000B0E08A839B83AC83BD838E839F83A887C1
:1003B000B98787E891E09B878A8768EE73E080E0E1
:0C03C00090E032DF42DFFFCFF894FFCF67
:0603CC0001010000000029
:00000001FF
