S01300005472616E736D69747465722E7372656374
S113000045C0000060C000005EC000005CC000008D
S11300105AC0000058C0000056C0000054C0000080
S113002052C0000050C000004EC000004CC0000090
S11300304AC0000001C1000046C0000044C00000E6
S113004042C0000040C000003EC000003CC00000B0
S11300503AC0000038C0000036C0000034C00000C0
S113006032C0000030C000002EC000002CC00000D0
S11300702AC0000028C0000026C0000024C00000E0
S113008022C0000020C000001EC0000011241FBEBA
S1130090CFEFD0E4DEBFCDBF11E0A0E0B1E0E2EAF3
S11300A0F3E000E00BBF02C007900D92A630B10749
S11300B0D9F721E0A6E0B1E001C01D92AE30B2074D
S11300C0E1F73DD16CC19CCF813081F01092C50025
S11300D08FE98093C400E1ECF0E080818861808343
S11300E0E2ECF0E08081866080830895E9ECF0E042
S11300F0808188618083EAECF0E08081866080837F
S11301008FE98093CC001092CD000895613041F0C6
S1130110E0ECF0E0908195FFFDCF8093C600089558
S1130120E8ECF0E0908195FFFDCF8093CE00089538
S11301308F3F2FEF920711F00097A1F48091C00038
S113014085FF0EC09091000183E089278093000110
S113015082B960E080910001D9DF80E090E00895E9
S113016080E090E00895CF92DF92EF92FF921F9388
S1130170CF93DF931092060180910701882309F43D
S113018053C080E01BE0C0910C01D0910D01189F79
S1130190C00DD11D11244D815E816F8178858981C7
S11301A09A81AB81BC81481759076A077B07B0F075
S11301B08881E985FA85082E000C990B09958883B6
S11301C080910601E0910C01F0910D01189FE00D62
S11301D0F11D112415821682178210868091060162
S11301E0E0910C01F0910D01189FE00DF11D112417
S11301F0C580D680E780F0844091010150910201CE
S113020060910301709104014C0D5D1D6E1D7F1DF5
S113021045835683678370878F5F8093060190912F
S11302200701891708F4AFCFDF91CF911F91FF9099
S1130230EF90DF90CF9008951F920F920FB60F9218
S113024011240BB60F922F933F934F935F936F93A9
S11302507F938F939F93AF93BF93EF93FF9380917B
S1130260080190910901A0910A01B0910B01019735
S1130270A109B1098093080190930901A0930A018F
S1130280B0930B01892B8A2B8B2B89F46CDF809123
S1130290010190910201A0910301B09104018093A6
S11302A0080190930901A0930A01B0930B01FF91F7
S11302B0EF91BF91AF919F918F917F916F915F91DA
S11302C04F913F912F910F900BBE0F900FBE0F9047
S11302D01F901895609301017093020180930301AC
S11302E090930401609308017093090180930A01BB
S11302F090930B0108958BE0809381008DE790E04B
S1130300909389008093880082E080936F0010921C
S11303108500109284008091010190910201A091C6
S11303200301B09104018093080190930901A09303
S11303300A01B0930B018FB780688FBF0895CF93E4
S1130340DF93CDB7DEB72B970FB6F894DEBF0FBEA1
S1130350CDBF1FEF11B912B880E0B6DE81E0809303
S11303600701CE01019690930D0180930C0119832E
S113037088EE93E0A0E0B0E08A839B83AC83BD83E6
S11303808E839F83A887B98788E990E09B878A87B3
S113039068EE73E080E090E09DDFADDFFFCFF8947E
S10503A0FFCF89
S10903A20101000000004F
S9030000FC
