S01700004763634170706C69636174696F6E362E7372656356
S113000045C0000060C000005EC000005CC000008D
S11300105AC0000058C0000056C0000054C0000080
S113002052C0000050C000004EC000004CC0000090
S11300304AC0000014C1000046C0000044C00000D3
S113004042C0000040C000003EC000003CC00000B0
S11300503AC0000038C0000036C0000034C00000C0
S113006032C0000030C000002EC000002CC00000D0
S11300702AC0000028C0000026C0000024C00000E0
S113008022C0000020C000001EC0000011241FBEBA
S1130090CFEFD0E4DEBFCDBF11E0A0E0B1E0E8ECEB
S11300A0F3E000E00BBF02C007900D92A430B1074B
S11300B0D9F721E0A4E0B1E001C01D92AC30B20751
S11300C0E1F750D17FC19CCF813089F0E1ECF0E0C1
S11300D0808188618083E2ECF0E0808186608083A7
S11300E08FE78093C40088E38093C5000895E9EC0A
S11300F0F0E0808188618083EAECF0E080818660B2
S113010080838FE78093CC0088E38093CD000895AB
S1130110813021F08091C000807808958091C800DA
S113012080780895813039F08091C0008823E4F705
S11301308091C60008958091C8008823E4F78091D7
S1130140CE000895CF93DF93EC01009739F0019727
S113015011F0219641F4C0E0D0E00AC080E0D8DF7D
S1130160811104C005C0CFEFDFEF02C0C1E0D0E0D1
S1130170209779F0C130D10519F0219629F407C0F0
S113018080E0D0DF82B905C0CFEFDFEF02C0C0E06E
S1130190D0E0CE01DF91CF9108950F931F93CF93B9
S11301A0DF93109204014FC0C0910A01D0910B015A
S11301B09BE0899FC00DD11D11244D815E816F810B
S11301C0788589819A81AB81BC81481759076A0770
S11301D07B07B8F0E985FA858881082E000C990B15
S11301E00995888380910401E0910A01F0910B0143
S11301F09BE0899FE00DF11D112415821682178260
S1130200108680910401E0910A01F0910B019BE0BA
S1130210899FE00DF11D1124058116812781308508
S1130220409100015091010160910201709103011C
S1130230400F511F621F731F458356836783708766
S11302408F5F8093040180910401909105018917C7
S113025008F4AACFDF91CF911F910F9108951F92B7
S11302600F920FB60F9211240BB60F922F933F9358
S11302704F935F936F937F938F939F93AF93BF93AA
S1130280EF93FF938091060190910701A0910801DB
S1130290B09109010197A109B109809306019093D6
S11302A00701A0930801B0930901892B8A2B8B2B9A
S11302B089F473DF8091000190910101A091020102
S11302C0B09103018093060190930701A093080164
S11302D0B0930901FF91EF91BF91AF919F918F91DD
S11302E07F916F915F914F913F912F910F900BBE32
S11302F00F900FBE0F901F9018956093000170939C
S113030001018093020190930301609306017093AD
S11303100701809308019093090108958BE080936D
S113032081008DE790E0909389008093880082E0BB
S113033080936F00109285001092840080910001D8
S113034090910101A0910201B091030180930601F3
S113035090930701A0930801B09309018FB78068B7
S11303608FBF0895CF93DF93CDB7DEB72B970FB62A
S1130370F894DEBF0FBECDBF1FEF11B912B880E0F5
S1130380A3DE81E080930501CE01019690930B01D9
S113039080930A01198382E390E0A0E0B0E08A83AD
S11303A09B83AC83BD838E839F83A887B98782EAAE
S11303B090E09B878A8762E370E080E090E09DDFB5
S10B03C0ADDFFFCFF894FFCF7D
S10703C8010000002C
S9030000FC
