:1000000052C000006DC000006BC0000069C000005D
:1000100067C0000065C0000063C0000061C0000050
:100020005FC000005DC000005BC0000059C0000060
:1000300057C00000BFC0000053C0000051C0000006
:100040004FC000004DC000004BC0000049C0000080
:1000500047C0000045C0000043C0000041C0000090
:100060003FC000003DC000003BC0000039C00000A0
:1000700037C0000035C0000033C0000031C00000B0
:100080002FC000002DC000002BC0000089018D0191
:100090009A01AB01D101E101FC0122024C0278027C
:1000A000780257025F0211241FBECFEFD0E4DEBFFB
:1000B000CDBF11E0A0E0B1E0E2E7F5E000E00BBF6A
:1000C00002C007900D92A430B107D9F721E0A4E057
:1000D000B1E001C01D92A131B207E1F70DD247C2D4
:1000E0008FCFCF92DF92EF92FF921F93CF93DF9348
:1000F0001092040180910A01882309F453C080E022
:100100001BE0C0910F01D0911001189FC00DD11DAF
:1001100011244D815E816F81788589819A81AB81BF
:10012000BC81481759076A077B07B0F08881E985C9
:10013000FA85082E000C990B09958883809104019B
:10014000E0910F01F0911001189FE00DF11D1124B5
:10015000158216821782108680910401E0910F01AA
:10016000F0911001189FE00DF11D1124C580D6807B
:10017000E780F084409100015091010160910201FB
:10018000709103014C0D5D1D6E1D7F1D45835683CF
:10019000678370878F5F8093040190910A018917AC
:1001A00008F4AFCFDF91CF911F91FF90EF90DF90D8
:1001B000CF9008951F920F920FB60F9211240BB695
:1001C0000F922F933F934F935F936F937F938F93F0
:1001D0009F93AF93BF93EF93FF9380910B01909107
:1001E0000C01A0910D01B0910E010197A109B10977
:1001F00080930B0190930C01A0930D01B0930E011D
:10020000892B8A2B8B2B89F46CDF809100019091D4
:100210000101A0910201B091030180930B01909321
:100220000C01A0930D01B0930E01FF91EF91BF91CE
:10023000AF919F918F917F916F915F914F913F917E
:100240002F910F900BBE0F900FBE0F901F9018951F
:100250006093000170930101809302019093030168
:1002600060930B0170930C0180930D0190930E012C
:1002700008958BE08093810087E090E0909389005F
:100280008093880082E080936F0010928500109226
:1002900084008091000190910101A0910201B09130
:1002A000030180930B0190930C01A0930D01B09377
:1002B0000E018FB780688FBF08952091080130919B
:1002C00009012115310541F481E090E09093090185
:1002D0008093080180E008952817390730F01092C4
:1002E00009011092080181E008952F5F3F4F30937C
:1002F00009012093080180E00895CF93DF93EC017A
:10030000FC013196ED30F10508F0F2C0EA5BFF4FD9
:1003100025C11BB8C0E0D0E0EBC0109207011092DD
:10032000060115B8009BE4C081E090E0C6DFC82F4D
:10033000D0E0DEC084E090E0C0DF882309F4D8C0BC
:10034000009BC8C01092050110920701109206018F
:10035000C2E0D0E0CDC084E090E0AFDF882309F4B4
:10036000C7C08091060190910701883091050CF07B
:10037000B4C0009B10C047E050E0481B590B20E878
:1003800030E002C0359527954A95E2F73091050196
:10039000230F209305010196909307018093060196
:1003A000A7C084E090E089DF882309F4A1C0809190
:1003B000050185B9009994C010920501C0E0D0E014
:1003C00097C080910501882309F48DC0982F907CF7
:1003D00051F48370813009F08BC081E48093050172
:1003E000C5E0D0E085C0903809F082C081EC8093F0
:1003F0000501C5E0D0E07CC081E08BB984E090E0ED
:100400005CDF882309F474C0809106019091070194
:100410001816190634F0019690930701809306018F
:1004200067C010920701109206018091050180FFBC
:1004300005C081E08BB9C6E0D0E05AC01BB8C6E069
:10044000D0E056C084E090E038DF8823E1F080916E
:10045000060190910701883091050CF047C0019684
:1004600090930701809306012091050130E0A901D6
:1004700002C0559547958A95E2F740FF03C081E099
:100480008BB901C01BB880910601909107010897B4
:100490007CF1C7E0D0E02CC081E08BB984E090E033
:1004A0000CDF882329F11BB8CAE0D0E021C088EC1A
:1004B00090E003DF8823E1F0C0E0D0E019C0809134
:1004C000050185B980E293E0F8DE882389F0C0E079
:1004D000D0E00EC0C0E0D0E00BC0C3E0D0E008C068
:1004E000CBE0D0E005C0C0E0D0E002C0C7E0D0E083
:1004F000CE01DF91CF910895CF93DF93CDB7DEB7D3
:100500002B970FB6F894DEBF0FBECDBF8FEF84B927
:1005100015B88AB91BB811B882B981E080930A0175
:10052000CE0101969093100180930F01198281E012
:1005300090E0A0E0B0E08A839B83AC83BD838E8390
:100540009F83A887B9878DE791E09B878A8761E0C1
:1005500070E080E090E07CDE8CDEFFCFEE0FFF1FCE
:100560000024001C0BBE0790F691E02D0994F8942E
:02057000FFCFBB
:040572000100000084
:00000001FF
