:1000000050C000006BC0000069C0000067C0000065
:1000100065C0000063C0000061C000005FC0000058
:100020005DC000005BC0000059C0000057C0000068
:1000300055C00000BDC0000051C000004FC000000E
:100040004DC000004BC0000049C0000047C0000088
:1000500045C0000043C0000041C000003FC0000098
:100060003DC000003BC0000039C0000037C00000A8
:1000700035C0000033C0000031C000002FC00000B8
:100080002DC000002BC0000029C00000D001D40109
:10009000E001F3012A024D027302A102C802C80264
:1000A000AC0211241FBECFEFD0E4DEBFCDBF11E004
:1000B000A0E0B1E0EEEAF5E000E00BBF02C007907F
:1000C0000D92A430B107D9F721E0A4E0B1E001C05E
:1000D0001D92A431B207E1F70ED167C291CFCF9242
:1000E000DF92EF92FF921F93CF93DF931092040160
:1000F00080910B01882309F453C080E01BE0C0917C
:100100001001D0911101189FC00DD11D11244D81F6
:100110005E816F81788589819A81AB81BC81481726
:1001200059076A077B07B0F08881E985FA85082EB0
:10013000000C990B0995888380910401E0911001CE
:10014000F0911101189FE00DF11D11241582168206
:100150001782108680910401E0911001F091110145
:10016000189FE00DF11D1124C580D680E780F08432
:1001700040910001509101016091020170910301D1
:100180004C0D5D1D6E1D7F1D4583568367837087F3
:100190008F5F8093040190910B01891708F4AFCF12
:1001A000DF91CF911F91FF90EF90DF90CF90089556
:1001B0001F920F920FB60F9211240BB60F922F932E
:1001C0003F934F935F936F937F938F939F93AF93DF
:1001D000BF93EF93FF9380910C0190910D01A0913B
:1001E0000E01B0910F010197A109B10980930C0193
:1001F00090930D01A0930E01B0930F01892B8A2BD0
:100200008B2B89F46CDF8091000190910101A0910A
:100210000201B091030180930C0190930D01A09312
:100220000E01B0930F01FF91EF91BF91AF919F919C
:100230008F917F916F915F914F913F912F910F908F
:100240000BBE0F900FBE0F901F901895609300018A
:1002500070930101809302019093030160930C015C
:1002600070930D0180930E0190930F0108958BE020
:100270008093810087E090E09093890080938800CC
:1002800082E080936F00109285001092840080912C
:10029000000190910101A0910201B09103018093AE
:1002A0000C0190930D01A0930E01B0930F018FB735
:1002B00080688FBF08952091090130910A012115AE
:1002C000310541F481E090E090930A0180930901A7
:1002D00080E008952817390730F010920A01109233
:1002E000090181E008952F5F3F4F30930A01209369
:1002F000090180E00895CF93DF93CDB7DEB72B9748
:100300000FB6F894DEBF0FBECDBF8FEF84B915B81E
:100310008AB91BB811B882B983E085B981E08093AE
:100320000B01CE0101969093110180931001198267
:1003300081E090E0A0E0B0E08A839B83AC83BD8342
:100340008E839F83A887B98784EC91E09B878A87F7
:1003500061E070E080E090E079DF89DFFFCFECE7DB
:10036000F0E02081287F87709927822B8083EAE73D
:10037000F0E0808180648083808186FDFDCF809164
:100380007800909179000895CF93DF93EC01FC0100
:100390003196EB30F10508F0FBC0EA5BFF4FFCC083
:1003A0001BB8C0E0D0E0F4C0109208011092070121
:1003B000009BEEC081E090E07EDFC82FD0E0E8C077
:1003C00084E090E078DF882309F4E2C0009BD8C085
:1003D0001092060110920501109208011092070177
:1003E000C2E0D0E0D5C084E090E065DF882309F466
:1003F000CFC080910701909108018A309105D4F413
:10040000009B12C021E030E0082E02C0220F331FF3
:100410000A94E2F74091050150910601242B352BF7
:100420003093060120930501019690930801809373
:100430000701AEC0009B07C010920801109207018F
:10044000C3E0D0E0A5C01092060110920501C0E003
:10045000D0E09EC010920801109207018091050122
:1004600090910601009709F48EC09C0123703327F8
:100470002330310509F48AC0882793708115924092
:1004800009F086C0029B84C083E093E0909306014C
:1004900080930501C4E0D0E07BC081E08BB984E0AB
:1004A00090E009DF882309F473C0809107019091DF
:1004B00008011816190634F00196909308018093EC
:1004C000070166C010920801109207018091050192
:1004D00080FF05C081E08BB9C5E0D0E059C01BB8F2
:1004E000C5E0D0E055C084E090E0E5DE8823E1F08F
:1004F00080910701909108018A309105DCF4019602
:100500009093080180930701209105013091060125
:10051000A90102C0559547958A95E2F740FF03C0AF
:1005200081E08BB901C01BB880910701909108014F
:100530000A9774F11092080110920701C6E0D0E00A
:1005400027C081E08BB984E090E0B5DE882301F11B
:100550001BB8C0E0D0E01CC081E090E000DF9093C9
:1005600013018093120185E490E09093060180933B
:1005700005011092080110920701C4E0D0E008C004
:10058000C0E0D0E005C0C0E0D0E002C0C9E0D0E0EB
:10059000CE01DF91CF910895EE0FFF1F0024001CC4
:0E05A0000BBE0790F691E02D0994F894FFCF62
:0405AE000100000048
:00000001FF
