:1000000045C0000060C000005EC000005CC0000091
:100010005AC0000058C0000056C0000054C0000084
:1000200052C0000050C000004EC000004CC0000094
:100030004AC0000043C1000046C0000044C00000A8
:1000400042C0000040C000003EC000003CC00000B4
:100050003AC0000038C0000036C0000034C00000C4
:1000600032C0000030C000002EC000002CC00000D4
:100070002AC0000028C0000026C0000024C00000E4
:1000800022C0000020C000001EC0000011241FBEBE
:10009000CFEFD0E4DEBFCDBF11E0A0E0B1E0EAE2F7
:1000A000F4E000E00BBF02C007900D92A630B1074C
:1000B000D9F721E0A6E0B1E001C01D92A431B2075A
:1000C000E1F77FD1B0C19CCF009769F02CF48F3F4E
:1000D0002FEF9207E1F124C08130910591F0823039
:1000E000910579F11DC08091070190910801A091BF
:1000F0000901B0910A01C297A105B10508F047C0F6
:1001000026C08091070190910801A0910901B0914A
:100110000A01883E9340A105B10508F054C037C0DC
:100120000097A9F034F48F3F2FEF920709F05CC0DD
:1001300008C08130910559F18230910509F054C011
:1001400042C082E0809300018FEF9FEF089590916D
:10015000000182E08927809300018BB98091000122
:1001600082B98091070190910801A0910901B09195
:100170000A010196A11DB11D80930701909308010A
:10018000A0930901B0930A0180E090E00895809166
:10019000070190910801A0910901B0910A0101960F
:1001A000A11DB11D8093070190930801A09309013F
:1001B000B0930A01109200011BB88091000182B92E
:1001C00081E090E0089510920701109208011092CA
:1001D000090110920A0182E0809300018BB980919D
:1001E000000182B982E090E00895CF92DF92EF9211
:1001F000FF921F93CF93DF931092060180910B0122
:10020000882309F453C080E01BE0C0911001D09115
:100210001101189FC00DD11D11244D815E816F8188
:10022000788589819A81AB81BC81481759076A0713
:100230007B07B0F08881E985FA85082E000C990BC0
:100240000995888380910601E0911001F0911101D8
:10025000189FE00DF11D1124158216821782108659
:1002600080910601E0911001F0911101189FE00DBD
:10027000F11D1124C580D680E780F08440910101F2
:100280005091020160910301709104014C0D5D1DBC
:100290006E1D7F1D45835683678370878F5F8093B4
:1002A000060190910B01891708F4AFCFDF91CF9130
:1002B0001F91FF90EF90DF90CF9008951F920F92C3
:1002C0000FB60F9211240BB60F922F933F934F93BB
:1002D0005F936F937F938F939F93AF93BF93EF93AE
:1002E000FF9380910C0190910D01A0910E01B091AE
:1002F0000F010197A109B10980930C0190930D01A1
:10030000A0930E01B0930F01892B8A2B8B2B89F4BC
:100310006CDF8091010190910201A0910301B091E5
:10032000040180930C0190930D01A0930E01B093F2
:100330000F01FF91EF91BF91AF919F918F917F91AD
:100340006F915F914F913F912F910F900BBE0F9046
:100350000FBE0F901F9018956093010170930201DA
:10036000809303019093040160930C0170930D013D
:1003700080930E0190930F0108958BE0809381008C
:100380008AE090E0909389008093880082E08093D7
:100390006F0010928500109284008091010190916D
:1003A0000201A0910301B091040180930C0190938C
:1003B0000D01A0930E01B0930F018FB780688FBF1E
:1003C0000895CF93DF93CDB7DEB72B970FB6F89490
:1003D000DEBF0FBECDBF8FEF81B912B89EEF9AB9C5
:1003E0001BB891E090930B019E012F5F3F4F30931C
:1003F000110120931001898381E090E0A0E0B0E03A
:100400008A839B83AC83BD838E839F83A887B987B0
:1004100084E690E09B878A8761E070E080E090E06E
:0A0420009BDFABDFFFCFF894FFCFA6
:06042A00020100000000C9
:00000001FF
