S01900005472616E73636976657220437573746F6D2E737265634F
S113000051C000006CC000006AC0000068C000005D
S113001066C0000064C0000062C0000060C0000050
S11300205EC000005CC000005AC0000058C0000060
S113003056C00000BEC0000052C0000050C0000006
S11300404EC000004CC000004AC0000048C0000080
S113005046C0000044C0000042C0000040C0000090
S11300603EC000003CC000003AC0000038C00000A0
S113007036C0000034C0000032C0000030C00000B0
S11300802EC000002CC000002AC0000088018C0192
S11300909901AA01D401EF0115023F02650265022C
S11300A04A02520211241FBECFEFD0E4DEBFCDBFFF
S11300B011E0A0E0B1E0ECE4F5E000E00BBF02C029
S11300C007900D92A430B107D9F721E0A4E0B1E084
S11300D001C01D92A131B207E1F7FBD135C290CF27
S11300E0CF92DF92EF92FF921F93CF93DF93109200
S11300F0040180910A01882309F453C080E01BE0C5
S1130100C0910F01D0911001189FC00DD11D112471
S11301104D815E816F81788589819A81AB81BC81B3
S1130120481759076A077B07B0F08881E985FA8583
S1130130082E000C990B0995888380910401E091A5
S11301400F01F0911001189FE00DF11D112415828B
S113015016821782108680910401E0910F01F091BC
S11301601001189FE00DF11D1124C580D680E78091
S1130170F08440910001509101016091020170915D
S113018003014C0D5D1D6E1D7F1D458356836783E2
S113019070878F5F8093040190910A01891708F496
S11301A0AFCFDF91CF911F91FF90EF90DF90CF9071
S11301B008951F920F920FB60F9211240BB60F924F
S11301C02F933F934F935F936F937F938F939F935B
S11301D0AF93BF93EF93FF9380910B0190910C0128
S11301E0A0910D01B0910E010197A109B10980936D
S11301F00B0190930C01A0930D01B0930E01892B78
S11302008A2B8B2B89F46CDF809100019091010182
S1130210A0910201B091030180930B0190930C0112
S1130220A0930D01B0930E01FF91EF91BF91AF9197
S11302309F918F917F916F915F914F913F912F91FA
S11302400F900BBE0F900FBE0F901F9018956093E8
S11302500001709301018093020190930301609364
S11302600B0170930C0180930D0190930E0108957E
S11302708BE08093810087E090E0909389008093E5
S1130280880082E080936F001092850010928400B1
S11302908091000190910101A0910201B0910301AC
S11302A080930B0190930C01A0930D01B0930E0168
S11302B08FB780688FBF089520910801309109019C
S11302C02115310541F481E090E090930901809378
S11302D0080180E008952817390730F010920901C9
S11302E01092080181E008952F5F3F4F3093090178
S11302F02093080180E00895CF93DF93EC01FC0183
S11303003196EC30F10508F0E0C0EA5BFF4F13C111
S11303101BB8C0E0D0E0D9C01092070110920601CA
S113032015B8009BD2C081E090E0C6DFC82FD0E0B2
S1130330CCC084E090E0C0DF882309F4C6C0009BF1
S1130340B9C0109205011092070110920601C2E093
S1130350D0E0BBC084E090E0AFDF882309F4B5C0EF
S1130360809106019091070188309105ACF4009BBF
S11303700DC021E030E0082E02C0220F331F0A9482
S1130380E2F730910501232B209305010196909308
S113039007018093060199C0009B8FC080910501DD
S11303A085B9CAE0D0E091C080910501882309F4A1
S11303B087C0982F907C51F48370813009F085C0F8
S11303C081E480930501C4E0D0E07FC0903809F057
S11303D07CC081EC80930501C4E0D0E076C081E06C
S11303E08BB984E090E068DF882309F46EC08091C3
S11303F00601909107011816190634F0019690939E
S113040007018093060161C0109207011092060152
S11304108091050180FF05C081E08BB9C5E0D0E083
S113042054C01BB8C5E0D0E050C084E090E044DF85
S11304308823E1F0809106019091070188309105AD
S11304400CF041C00196909307018093060120911E
S1130450050130E0A90102C0559547958A95E2F758
S113046040FF03C081E08BB901C01BB88091060135
S11304709091070108974CF1C6E0D0E026C081E0D6
S11304808BB984E090E018DF8823F9F01BB8C9E049
S1130490D0E01BC088EC90E00FDF8823B1F0C0E00F
S11304A0D0E013C080E293E007DF882371F0C0E05E
S11304B0D0E00BC0C0E0D0E008C0C0E0D0E005C090
S11304C0C0E0D0E002C0C6E0D0E0CE01DF91CF9121
S11304D00895CF93DF93CDB7DEB72B970FB6F8947B
S11304E0DEBF0FBECDBF8FEF84B915B88AB91BB874
S11304F011B882B981E080930A01CE0101969093EC
S1130500100180930F01198281E090E0A0E0B0E037
S11305108A839B83AC83BD838E839F83A887B9879B
S11305208CE791E09B878A8761E070E080E090E04F
S11305308EDE9EDEFFCFEE0FFF1F0024001C0BBEDD
S10F05400790F691E02D0994F894FFCF89
S107054C01000000A6
S9030000FC
