:100000004EC0000069C0000067C0000065C000006D
:1000100063C0000061C000005FC000005DC0000060
:100020005BC0000059C0000057C0000055C0000070
:1000300053C00000BBC000004FC000004DC0000016
:100040004BC0000049C0000047C0000045C0000090
:1000500043C0000041C000003FC000003DC00000A0
:100060003BC0000039C0000037C0000035C00000B0
:1000700033C0000031C000002FC000002DC00000C0
:100080002BC0000029C0000027C0000085018801A6
:100090009601A301C4018501CF01E80109021124E1
:1000A0001FBECFEFD0E4DEBFCDBF11E0A0E0B1E0D6
:1000B000E4ECF4E000E00BBF02C007900D92A43026
:1000C000B107D9F721E0A4E0B1E001C01D92A13150
:1000D000B207E1F7BAD1F4C193CFCF92DF92EF929A
:1000E000FF921F93CF93DF931092040180910A0136
:1000F000882309F453C080E01BE0C0910F01D09128
:100100001001189FC00DD11D11244D815E816F819A
:10011000788589819A81AB81BC81481759076A0724
:100120007B07B0F08881E985FA85082E000C990BD1
:100130000995888380910401E0910F01F0911001ED
:10014000189FE00DF11D112415821682178210866A
:1001500080910401E0910F01F0911001189FE00DD2
:10016000F11D1124C580D680E780F0844091000104
:100170005091010160910201709103014C0D5D1DD0
:100180006E1D7F1D45835683678370878F5F8093C5
:10019000040190910A01891708F4AFCFDF91CF9144
:1001A0001F91FF90EF90DF90CF9008951F920F92D4
:1001B0000FB60F9211240BB60F922F933F934F93CC
:1001C0005F936F937F938F939F93AF93BF93EF93BF
:1001D000FF9380910B0190910C01A0910D01B091C2
:1001E0000E010197A109B10980930B0190930C01B5
:1001F000A0930D01B0930E01892B8A2B8B2B89F4D0
:100200006CDF8091000190910101A0910201B091F9
:10021000030180930B0190930C01A0930D01B09307
:100220000E01FF91EF91BF91AF919F918F917F91BF
:100230006F915F914F913F912F910F900BBE0F9057
:100240000FBE0F901F9018956093000170930101ED
:10025000809302019093030160930B0170930C0152
:1002600080930D0190930E0108958BE0809381009F
:1002700087E090E0909389008093880082E08093EB
:100280006F0010928500109284008091000190917F
:100290000101A0910201B091030180930B019093A1
:1002A0000C01A0930D01B0930E018FB780688FBF32
:1002B000089520910801309109012115310541F47B
:1002C00081E090E0909309018093080180E0089517
:1002D0002817390730F0109209011092080181E0C7
:1002E00008952F5F3F4F309309012093080180E06C
:1002F0000895CF93DF93EC01FC013196E930F105CD
:1003000008F09FC0EA5BFF4FD2C0C0E0D0E099C0C8
:10031000109205011092070110920601589B91C09E
:1003200081E090E0C6DFC82FD0E08BC084E090E091
:10033000C0DF882309F485C0589B75C01092050161
:10034000C2E0D0E07EC084E090E0B3DF882309F40F
:1003500078C08091060190910701883091050CF0DA
:1003600065C02BB130E0082E02C0220F331F0A9463
:10037000E2F730910501232B20930501019690931C
:100380000701809306015DC084E090E092DF88233E
:1003900009F457C058994DC0C0E0D0E052C084E085
:1003A00090E087DF882309F44CC08091060190918A
:1003B000070102970CF040C082E08BB980910601E2
:1003C000909107010196909307018093060139C02F
:1003D00084E090E06EDF8823A1F180910601909186
:1003E0000701883091055CF52091050130E0019608
:1003F000A90102C0440F551F8A95E2F74BB98091BD
:1004000006019091070101969093070180930601E0
:1004100018C082E08BB984E090E04BDF882389F03C
:10042000C0E0D0E00EC0C0E0D0E00BC0C3E0D0E040
:1004300008C0C4E0D0E005C0C6E0D0E002C0C7E01C
:10044000D0E0CE01DF91CF910895CF93DF93CDB768
:10045000DEB72B970FB6F894DEBF0FBECDBF8FEF80
:1004600081B912B89EEF9AB991E09BB990930A01B5
:100470009E012F5F3F4F3093100120930F0189831E
:1004800081E090E0A0E0B0E08A839B83AC83BD83F1
:100490008E839F83A887B98789E791E09B878A87A6
:1004A00061E070E080E090E0CFDEDFDEFFCFEE0FB6
:1004B000FF1F0024001C0BBE0790F691E02D09944D
:0404C000F894FFCFDE
:0404C4000100000033
:00000001FF
