S01900005472616E73636976657220437573746F6D2E737265634F
S113000050C000006BC0000069C0000067C0000061
S113001065C0000063C0000061C000005FC0000054
S11300205DC000005BC0000059C0000057C0000064
S113003055C00000BDC0000051C000004FC000000A
S11300404DC000004BC0000049C0000047C0000084
S113005045C0000043C0000041C000003FC0000094
S11300603DC000003BC0000039C0000037C00000A4
S113007035C0000033C0000031C000002FC00000B4
S11300802DC000002BC0000029C00000EA01EE01D1
S1130090FB010E0249026C029202C002E802E8026D
S11300A0CB0211241FBECFEFD0E4DEBFCDBF11E0E1
S11300B0A0E0B1E0EEEEF5E000E00BBF02C0079077
S11300C00D92A430B107D9F721E0A4E0B1E001C05A
S11300D01D92A631B207E1F728D187C291CFCF9202
S11300E0DF92EF92FF921F93CF93DF93109204015C
S11300F080910D01882309F453C080E01BE0C09176
S11301001201D0911301189FC00DD11D11244D81EE
S11301105E816F81788589819A81AB81BC81481722
S113012059076A077B07B0F08881E985FA85082EAC
S1130130000C990B0995888380910401E0911201C8
S1130140F0911301189FE00DF11D11241582168200
S11301501782108680910401E0911201F09113013D
S1130160189FE00DF11D1124C580D680E780F0842E
S113017040910001509101016091020170910301CD
S11301804C0D5D1D6E1D7F1D4583568367837087EF
S11301908F5F8093040190910D01891708F4AFCF0C
S11301A0DF91CF911F91FF90EF90DF90CF90089552
S11301B01F920F920FB60F9211240BB60F922F932A
S11301C03F934F935F936F937F938F939F93AF93DB
S11301D0BF93EF93FF9380910E0190910F01A09133
S11301E01001B09111010197A109B10980930E0189
S11301F090930F01A0931001B0931101892B8A2BC6
S11302008B2B89F46CDF8091000190910101A09106
S11302100201B091030180930E0190930F01A0930A
S11302201001B0931101FF91EF91BF91AF919F9194
S11302308F917F916F915F914F913F912F910F908B
S11302400BBE0F900FBE0F901F9018956093000186
S113025070930101809302019093030160930E0156
S113026070930F01809310019093110108958BE016
S11302708093810087E090E09093890080938800C8
S113028082E080936F001092850010928400809128
S1130290000190910101A0910201B09103018093AA
S11302A00E0190930F01A0931001B09311018FB729
S11302B080688FBF08954091090150910A016091AF
S11302C00B0170910C01411551056105710571F423
S11302D081E090E0A0E0B0E08093090190930A01EE
S11302E0A0930B01B0930C0180E00895A0E0B0E06E
S11302F0481759076A077B0750F0109209011092BA
S11303000A0110920B0110920C0181E008954F5FD5
S11303105F4F6F4F7F4F4093090150930A016093E1
S11303200B0170930C0180E00895CF93DF93CDB758
S1130330DEB72B970FB6F894DEBF0FBECDBF8FEF9D
S113034084B915B88AB91BB811B882B983E085B9E4
S113035081E080930D01CE01019690931301809367
S11303601201198281E090E0A0E0B0E08A839B83CF
S1130370AC83BD838E839F83A887B9878EED91E07C
S11303809B878A8761E070E080E090E05FDF6FDF49
S1130390FFCFEAE7F0E096E89083806E80937C00DC
S11303A083E08A95F1F700008081806480838081F6
S11303B086FDFDCF8091790090E00895CF93DF937F
S11303C0EC01FC013196EB30F10508F001C1EA5B68
S11303D0FF4F02C11BB8C0E0D0E0FAC01092080180
S11303E01092070115B8009BF3C081E090E063DF31
S11303F0C82FD0E0EDC084E090E05DDF882309F4ED
S1130400E7C0009BDAC01092060110920501109219
S1130410080110920701C2E0D0E0DAC084E090E065
S11304204ADF882309F4D4C0809107019091080120
S11304308A309105D4F4009B12C021E030E0082EEC
S113044002C0220F331F0A94E2F740910501509134
S11304500601242B352B30930601209305010196C8
S11304609093080180930701B3C0009B07C01092CA
S1130470080110920701C3E0D0E0AAC0109206015F
S1130480109205011092080110920701C0E0D0E01B
S11304909FC010920801109207018091050190916C
S11304A00601009709F48CC09C01222733702115A2
S11304B0314009F088C09C012F7033272330310567
S11304C009F084C085B98CE291E0F5DE882309F453
S11304D07FC0C9E0D0E07CC081E08BB984E090E0CB
S11304E0EADE882309F474C0809107019091080121
S11304F01816190634F001969093080180930701A9
S113050067C010920801109207018091050180FFD5
S113051005C081E08BB9C5E0D0E05AC01BB8C5E086
S1130520D0E056C084E090E0C6DE8823E1F08091FC
S11305300701909108018A309105DCF401969093AB
S11305400801809307012091050130910601A9015A
S113055002C0559547958A95E2F740FF03C081E0B4
S11305608BB901C01BB880910701909108010A97CB
S11305707CF11092080110920701C6E0D0E028C077
S113058081E08BB984E090E096DE882309F11BB802
S1130590C0E0D0E01DC081E0FCDE909315018093A3
S11305A01401992790930601809305011092080184
S11305B010920701C4E0D0E00BC0C0E0D0E008C056
S11305C0C0E0D0E005C0C0E0D0E002C0C0E0D0E0B0
S11305D0CE01DF91CF910895EE0FFF1F0024001C80
S11105E00BBE0790F691E02D0994F894FFCF1E
S10705EE0100000004
S9030000FC
